{
  "contractName": "PumlNFT",
  "abi": [
    {
      "inputs": [
        {
          "internalType": "string",
          "name": "_baseTokenURI",
          "type": "string"
        }
      ],
      "stateMutability": "nonpayable",
      "type": "constructor"
    },
    {
      "anonymous": false,
      "inputs": [
        {
          "indexed": true,
          "internalType": "address",
          "name": "owner",
          "type": "address"
        },
        {
          "indexed": true,
          "internalType": "address",
          "name": "approved",
          "type": "address"
        },
        {
          "indexed": true,
          "internalType": "uint256",
          "name": "tokenId",
          "type": "uint256"
        }
      ],
      "name": "Approval",
      "type": "event"
    },
    {
      "anonymous": false,
      "inputs": [
        {
          "indexed": true,
          "internalType": "address",
          "name": "owner",
          "type": "address"
        },
        {
          "indexed": true,
          "internalType": "address",
          "name": "operator",
          "type": "address"
        },
        {
          "indexed": false,
          "internalType": "bool",
          "name": "approved",
          "type": "bool"
        }
      ],
      "name": "ApprovalForAll",
      "type": "event"
    },
    {
      "anonymous": false,
      "inputs": [
        {
          "indexed": true,
          "internalType": "address",
          "name": "previousOwner",
          "type": "address"
        },
        {
          "indexed": true,
          "internalType": "address",
          "name": "newOwner",
          "type": "address"
        }
      ],
      "name": "OwnershipTransferred",
      "type": "event"
    },
    {
      "anonymous": false,
      "inputs": [
        {
          "indexed": true,
          "internalType": "address",
          "name": "from",
          "type": "address"
        },
        {
          "indexed": true,
          "internalType": "address",
          "name": "to",
          "type": "address"
        },
        {
          "indexed": true,
          "internalType": "uint256",
          "name": "tokenId",
          "type": "uint256"
        }
      ],
      "name": "Transfer",
      "type": "event"
    },
    {
      "inputs": [
        {
          "internalType": "address",
          "name": "to",
          "type": "address"
        },
        {
          "internalType": "uint256",
          "name": "tokenId",
          "type": "uint256"
        }
      ],
      "name": "approve",
      "outputs": [],
      "stateMutability": "nonpayable",
      "type": "function"
    },
    {
      "inputs": [
        {
          "internalType": "address",
          "name": "owner",
          "type": "address"
        }
      ],
      "name": "balanceOf",
      "outputs": [
        {
          "internalType": "uint256",
          "name": "",
          "type": "uint256"
        }
      ],
      "stateMutability": "view",
      "type": "function"
    },
    {
      "inputs": [
        {
          "internalType": "uint256",
          "name": "tokenId",
          "type": "uint256"
        }
      ],
      "name": "getApproved",
      "outputs": [
        {
          "internalType": "address",
          "name": "",
          "type": "address"
        }
      ],
      "stateMutability": "view",
      "type": "function"
    },
    {
      "inputs": [
        {
          "internalType": "address",
          "name": "owner",
          "type": "address"
        },
        {
          "internalType": "address",
          "name": "operator",
          "type": "address"
        }
      ],
      "name": "isApprovedForAll",
      "outputs": [
        {
          "internalType": "bool",
          "name": "",
          "type": "bool"
        }
      ],
      "stateMutability": "view",
      "type": "function"
    },
    {
      "inputs": [],
      "name": "name",
      "outputs": [
        {
          "internalType": "string",
          "name": "",
          "type": "string"
        }
      ],
      "stateMutability": "view",
      "type": "function"
    },
    {
      "inputs": [],
      "name": "owner",
      "outputs": [
        {
          "internalType": "address",
          "name": "",
          "type": "address"
        }
      ],
      "stateMutability": "view",
      "type": "function"
    },
    {
      "inputs": [
        {
          "internalType": "uint256",
          "name": "tokenId",
          "type": "uint256"
        }
      ],
      "name": "ownerOf",
      "outputs": [
        {
          "internalType": "address",
          "name": "",
          "type": "address"
        }
      ],
      "stateMutability": "view",
      "type": "function"
    },
    {
      "inputs": [],
      "name": "renounceOwnership",
      "outputs": [],
      "stateMutability": "nonpayable",
      "type": "function"
    },
    {
      "inputs": [
        {
          "internalType": "address",
          "name": "from",
          "type": "address"
        },
        {
          "internalType": "address",
          "name": "to",
          "type": "address"
        },
        {
          "internalType": "uint256",
          "name": "tokenId",
          "type": "uint256"
        }
      ],
      "name": "safeTransferFrom",
      "outputs": [],
      "stateMutability": "nonpayable",
      "type": "function"
    },
    {
      "inputs": [
        {
          "internalType": "address",
          "name": "from",
          "type": "address"
        },
        {
          "internalType": "address",
          "name": "to",
          "type": "address"
        },
        {
          "internalType": "uint256",
          "name": "tokenId",
          "type": "uint256"
        },
        {
          "internalType": "bytes",
          "name": "_data",
          "type": "bytes"
        }
      ],
      "name": "safeTransferFrom",
      "outputs": [],
      "stateMutability": "nonpayable",
      "type": "function"
    },
    {
      "inputs": [
        {
          "internalType": "address",
          "name": "operator",
          "type": "address"
        },
        {
          "internalType": "bool",
          "name": "approved",
          "type": "bool"
        }
      ],
      "name": "setApprovalForAll",
      "outputs": [],
      "stateMutability": "nonpayable",
      "type": "function"
    },
    {
      "inputs": [
        {
          "internalType": "bytes4",
          "name": "interfaceId",
          "type": "bytes4"
        }
      ],
      "name": "supportsInterface",
      "outputs": [
        {
          "internalType": "bool",
          "name": "",
          "type": "bool"
        }
      ],
      "stateMutability": "view",
      "type": "function"
    },
    {
      "inputs": [],
      "name": "symbol",
      "outputs": [
        {
          "internalType": "string",
          "name": "",
          "type": "string"
        }
      ],
      "stateMutability": "view",
      "type": "function"
    },
    {
      "inputs": [
        {
          "internalType": "uint256",
          "name": "tokenId",
          "type": "uint256"
        }
      ],
      "name": "tokenURI",
      "outputs": [
        {
          "internalType": "string",
          "name": "",
          "type": "string"
        }
      ],
      "stateMutability": "view",
      "type": "function"
    },
    {
      "inputs": [
        {
          "internalType": "address",
          "name": "from",
          "type": "address"
        },
        {
          "internalType": "address",
          "name": "to",
          "type": "address"
        },
        {
          "internalType": "uint256",
          "name": "tokenId",
          "type": "uint256"
        }
      ],
      "name": "transferFrom",
      "outputs": [],
      "stateMutability": "nonpayable",
      "type": "function"
    },
    {
      "inputs": [
        {
          "internalType": "address",
          "name": "newOwner",
          "type": "address"
        }
      ],
      "name": "transferOwnership",
      "outputs": [],
      "stateMutability": "nonpayable",
      "type": "function"
    },
    {
      "inputs": [
        {
          "internalType": "uint256",
          "name": "_tokenId",
          "type": "uint256"
        }
      ],
      "name": "getCreator",
      "outputs": [
        {
          "internalType": "address",
          "name": "",
          "type": "address"
        }
      ],
      "stateMutability": "view",
      "type": "function"
    },
    {
      "inputs": [
        {
          "internalType": "uint256",
          "name": "_tokenId",
          "type": "uint256"
        }
      ],
      "name": "getRoyalties",
      "outputs": [
        {
          "internalType": "uint256",
          "name": "",
          "type": "uint256"
        }
      ],
      "stateMutability": "view",
      "type": "function"
    },
    {
      "inputs": [
        {
          "internalType": "string",
          "name": "_tokenURI",
          "type": "string"
        },
        {
          "internalType": "uint256",
          "name": "_royalties",
          "type": "uint256"
        },
        {
          "internalType": "string",
          "name": "_lockedContent",
          "type": "string"
        }
      ],
      "name": "mint",
      "outputs": [
        {
          "internalType": "uint256",
          "name": "",
          "type": "uint256"
        }
      ],
      "stateMutability": "nonpayable",
      "type": "function"
    },
    {
      "inputs": [
        {
          "internalType": "uint256",
          "name": "_tokenId",
          "type": "uint256"
        }
      ],
      "name": "unlockContent",
      "outputs": [
        {
          "internalType": "string",
          "name": "",
          "type": "string"
        }
      ],
      "stateMutability": "view",
      "type": "function"
    }
  ],
  "bytecode": "0x60806040523480156200001157600080fd5b50604051620038c6380380620038c6833981810160405281019062000037919062000307565b6040518060400160405280600781526020017f50756d6c4e4654000000000000000000000000000000000000000000000000008152506040518060400160405280600481526020017f504e4654000000000000000000000000000000000000000000000000000000008152508160009080519060200190620000bb929190620001e5565b508060019080519060200190620000d4929190620001e5565b505050620000f7620000eb6200011760201b60201c565b6200011f60201b60201c565b80600990805190602001906200010f929190620001e5565b5050620004bc565b600033905090565b6000600760009054906101000a900473ffffffffffffffffffffffffffffffffffffffff16905081600760006101000a81548173ffffffffffffffffffffffffffffffffffffffff021916908373ffffffffffffffffffffffffffffffffffffffff1602179055508173ffffffffffffffffffffffffffffffffffffffff168173ffffffffffffffffffffffffffffffffffffffff167f8be0079c531659141344cd1fd0a4f28419497f9722a3daafe3b4186f6b6457e060405160405180910390a35050565b828054620001f390620003e1565b90600052602060002090601f01602090048101928262000217576000855562000263565b82601f106200023257805160ff191683800117855562000263565b8280016001018555821562000263579182015b828111156200026257825182559160200191906001019062000245565b5b50905062000272919062000276565b5090565b5b808211156200029157600081600090555060010162000277565b5090565b6000620002ac620002a68462000375565b6200034c565b905082815260208101848484011115620002c557600080fd5b620002d2848285620003ab565b509392505050565b600082601f830112620002ec57600080fd5b8151620002fe84826020860162000295565b91505092915050565b6000602082840312156200031a57600080fd5b600082015167ffffffffffffffff8111156200033557600080fd5b6200034384828501620002da565b91505092915050565b6000620003586200036b565b905062000366828262000417565b919050565b6000604051905090565b600067ffffffffffffffff8211156200039357620003926200047c565b5b6200039e82620004ab565b9050602081019050919050565b60005b83811015620003cb578082015181840152602081019050620003ae565b83811115620003db576000848401525b50505050565b60006002820490506001821680620003fa57607f821691505b602082108114156200041157620004106200044d565b5b50919050565b6200042282620004ab565b810181811067ffffffffffffffff821117156200044457620004436200047c565b5b80604052505050565b7f4e487b7100000000000000000000000000000000000000000000000000000000600052602260045260246000fd5b7f4e487b7100000000000000000000000000000000000000000000000000000000600052604160045260246000fd5b6000601f19601f8301169050919050565b6133fa80620004cc6000396000f3fe608060405234801561001057600080fd5b506004361061012c5760003560e01c8063715018a6116100ad578063bb3bafd611610071578063bb3bafd614610341578063c87b56dd14610371578063d48e638a146103a1578063e985e9c5146103d1578063f2fde38b146104015761012c565b8063715018a6146102c35780638da5cb5b146102cd57806395d89b41146102eb578063a22cb46514610309578063b88d4fde146103255761012c565b806323b872dd116100f457806323b872dd146101fb57806328d82e301461021757806342842e0e146102475780636352211e1461026357806370a08231146102935761012c565b806301ffc9a71461013157806306bdc9491461016157806306fdde0314610191578063081812fc146101af578063095ea7b3146101df575b600080fd5b61014b600480360381019061014691906122be565b61041d565b60405161015891906127ac565b60405180910390f35b61017b60048036038101906101769190612310565b6104ff565b6040516101889190612a49565b60405180910390f35b6101996105f3565b6040516101a691906127c7565b60405180910390f35b6101c960048036038101906101c4919061238f565b610685565b6040516101d69190612745565b60405180910390f35b6101f960048036038101906101f49190612282565b61070a565b005b6102156004803603810190610210919061217c565b610822565b005b610231600480360381019061022c919061238f565b610882565b60405161023e91906127c7565b60405180910390f35b610261600480360381019061025c919061217c565b610a20565b005b61027d6004803603810190610278919061238f565b610a40565b60405161028a9190612745565b60405180910390f35b6102ad60048036038101906102a891906120ee565b610af2565b6040516102ba9190612a49565b60405180910390f35b6102cb610baa565b005b6102d5610c32565b6040516102e29190612745565b60405180910390f35b6102f3610c5c565b60405161030091906127c7565b60405180910390f35b610323600480360381019061031e9190612246565b610cee565b005b61033f600480360381019061033a91906121cb565b610e6f565b005b61035b6004803603810190610356919061238f565b610ed1565b6040516103689190612a49565b60405180910390f35b61038b6004803603810190610386919061238f565b610ef1565b60405161039891906127c7565b60405180910390f35b6103bb60048036038101906103b6919061238f565b611043565b6040516103c89190612745565b60405180910390f35b6103eb60048036038101906103e69190612140565b611083565b6040516103f891906127ac565b60405180910390f35b61041b600480360381019061041691906120ee565b611117565b005b60007f80ac58cd000000000000000000000000000000000000000000000000000000007bffffffffffffffffffffffffffffffffffffffffffffffffffffffff1916827bffffffffffffffffffffffffffffffffffffffffffffffffffffffff191614806104e857507f5b5e139f000000000000000000000000000000000000000000000000000000007bffffffffffffffffffffffffffffffffffffffffffffffffffffffff1916827bffffffffffffffffffffffffffffffffffffffffffffffffffffffff1916145b806104f857506104f78261120f565b5b9050919050565b600061050b6008611279565b6000610517600861128f565b9050610523338261129d565b61052d818661146b565b600060405180606001604052803373ffffffffffffffffffffffffffffffffffffffff16815260200186815260200185815250905080600a600084815260200190815260200160002060008201518160000160006101000a81548173ffffffffffffffffffffffffffffffffffffffff021916908373ffffffffffffffffffffffffffffffffffffffff1602179055506020820151816001015560408201518160020190805190602001906105e3929190611efd565b5090505081925050509392505050565b60606000805461060290612c9f565b80601f016020809104026020016040519081016040528092919081815260200182805461062e90612c9f565b801561067b5780601f106106505761010080835404028352916020019161067b565b820191906000526020600020905b81548152906001019060200180831161065e57829003601f168201915b5050505050905090565b6000610690826114df565b6106cf576040517f08c379a00000000000000000000000000000000000000000000000000000000081526004016106c690612989565b60405180910390fd5b6004600083815260200190815260200160002060009054906101000a900473ffffffffffffffffffffffffffffffffffffffff169050919050565b600061071582610a40565b90508073ffffffffffffffffffffffffffffffffffffffff168373ffffffffffffffffffffffffffffffffffffffff161415610786576040517f08c379a000000000000000000000000000000000000000000000000000000000815260040161077d90612a09565b60405180910390fd5b8073ffffffffffffffffffffffffffffffffffffffff166107a561154b565b73ffffffffffffffffffffffffffffffffffffffff1614806107d457506107d3816107ce61154b565b611083565b5b610813576040517f08c379a000000000000000000000000000000000000000000000000000000000815260040161080a906128c9565b60405180910390fd5b61081d8383611553565b505050565b61083361082d61154b565b8261160c565b610872576040517f08c379a000000000000000000000000000000000000000000000000000000000815260040161086990612a29565b60405180910390fd5b61087d8383836116ea565b505050565b60603373ffffffffffffffffffffffffffffffffffffffff163073ffffffffffffffffffffffffffffffffffffffff16636352211e846040518263ffffffff1660e01b81526004016108d49190612a49565b60206040518083038186803b1580156108ec57600080fd5b505afa158015610900573d6000803e3d6000fd5b505050506040513d601f19601f820116820180604052508101906109249190612117565b73ffffffffffffffffffffffffffffffffffffffff161461097a576040517f08c379a000000000000000000000000000000000000000000000000000000000815260040161097190612849565b60405180910390fd5b600a6000838152602001908152602001600020600201805461099b90612c9f565b80601f01602080910402602001604051908101604052809291908181526020018280546109c790612c9f565b8015610a145780601f106109e957610100808354040283529160200191610a14565b820191906000526020600020905b8154815290600101906020018083116109f757829003601f168201915b50505050509050919050565b610a3b83838360405180602001604052806000815250610e6f565b505050565b6000806002600084815260200190815260200160002060009054906101000a900473ffffffffffffffffffffffffffffffffffffffff169050600073ffffffffffffffffffffffffffffffffffffffff168173ffffffffffffffffffffffffffffffffffffffff161415610ae9576040517f08c379a0000000000000000000000000000000000000000000000000000000008152600401610ae090612909565b60405180910390fd5b80915050919050565b60008073ffffffffffffffffffffffffffffffffffffffff168273ffffffffffffffffffffffffffffffffffffffff161415610b63576040517f08c379a0000000000000000000000000000000000000000000000000000000008152600401610b5a906128e9565b60405180910390fd5b600360008373ffffffffffffffffffffffffffffffffffffffff1673ffffffffffffffffffffffffffffffffffffffff168152602001908152602001600020549050919050565b610bb261154b565b73ffffffffffffffffffffffffffffffffffffffff16610bd0610c32565b73ffffffffffffffffffffffffffffffffffffffff1614610c26576040517f08c379a0000000000000000000000000000000000000000000000000000000008152600401610c1d906129a9565b60405180910390fd5b610c306000611946565b565b6000600760009054906101000a900473ffffffffffffffffffffffffffffffffffffffff16905090565b606060018054610c6b90612c9f565b80601f0160208091040260200160405190810160405280929190818152602001828054610c9790612c9f565b8015610ce45780601f10610cb957610100808354040283529160200191610ce4565b820191906000526020600020905b815481529060010190602001808311610cc757829003601f168201915b5050505050905090565b610cf661154b565b73ffffffffffffffffffffffffffffffffffffffff168273ffffffffffffffffffffffffffffffffffffffff161415610d64576040517f08c379a0000000000000000000000000000000000000000000000000000000008152600401610d5b90612889565b60405180910390fd5b8060056000610d7161154b565b73ffffffffffffffffffffffffffffffffffffffff1673ffffffffffffffffffffffffffffffffffffffff16815260200190815260200160002060008473ffffffffffffffffffffffffffffffffffffffff1673ffffffffffffffffffffffffffffffffffffffff16815260200190815260200160002060006101000a81548160ff0219169083151502179055508173ffffffffffffffffffffffffffffffffffffffff16610e1e61154b565b73ffffffffffffffffffffffffffffffffffffffff167f17307eab39ab6107e8899845ad3d59bd9653f200f220920489ca2b5937696c3183604051610e6391906127ac565b60405180910390a35050565b610e80610e7a61154b565b8361160c565b610ebf576040517f08c379a0000000000000000000000000000000000000000000000000000000008152600401610eb690612a29565b60405180910390fd5b610ecb84848484611a0c565b50505050565b6000600a6000838152602001908152602001600020600101549050919050565b6060610efc826114df565b610f3b576040517f08c379a0000000000000000000000000000000000000000000000000000000008152600401610f3290612969565b60405180910390fd5b6000600660008481526020019081526020016000208054610f5b90612c9f565b80601f0160208091040260200160405190810160405280929190818152602001828054610f8790612c9f565b8015610fd45780601f10610fa957610100808354040283529160200191610fd4565b820191906000526020600020905b815481529060010190602001808311610fb757829003601f168201915b505050505090506000610fe5611a68565b9050600081511415610ffb57819250505061103e565b600082511115611030578082604051602001611018929190612721565b6040516020818303038152906040529250505061103e565b61103984611afa565b925050505b919050565b6000600a600083815260200190815260200160002060000160009054906101000a900473ffffffffffffffffffffffffffffffffffffffff169050919050565b6000600560008473ffffffffffffffffffffffffffffffffffffffff1673ffffffffffffffffffffffffffffffffffffffff16815260200190815260200160002060008373ffffffffffffffffffffffffffffffffffffffff1673ffffffffffffffffffffffffffffffffffffffff16815260200190815260200160002060009054906101000a900460ff16905092915050565b61111f61154b565b73ffffffffffffffffffffffffffffffffffffffff1661113d610c32565b73ffffffffffffffffffffffffffffffffffffffff1614611193576040517f08c379a000000000000000000000000000000000000000000000000000000000815260040161118a906129a9565b60405180910390fd5b600073ffffffffffffffffffffffffffffffffffffffff168173ffffffffffffffffffffffffffffffffffffffff161415611203576040517f08c379a00000000000000000000000000000000000000000000000000000000081526004016111fa90612809565b60405180910390fd5b61120c81611946565b50565b60007f01ffc9a7000000000000000000000000000000000000000000000000000000007bffffffffffffffffffffffffffffffffffffffffffffffffffffffff1916827bffffffffffffffffffffffffffffffffffffffffffffffffffffffff1916149050919050565b6001816000016000828254019250508190555050565b600081600001549050919050565b600073ffffffffffffffffffffffffffffffffffffffff168273ffffffffffffffffffffffffffffffffffffffff16141561130d576040517f08c379a000000000000000000000000000000000000000000000000000000000815260040161130490612949565b60405180910390fd5b611316816114df565b15611356576040517f08c379a000000000000000000000000000000000000000000000000000000000815260040161134d90612829565b60405180910390fd5b61136260008383611ba1565b6001600360008473ffffffffffffffffffffffffffffffffffffffff1673ffffffffffffffffffffffffffffffffffffffff16815260200190815260200160002060008282546113b29190612b2e565b92505081905550816002600083815260200190815260200160002060006101000a81548173ffffffffffffffffffffffffffffffffffffffff021916908373ffffffffffffffffffffffffffffffffffffffff160217905550808273ffffffffffffffffffffffffffffffffffffffff16600073ffffffffffffffffffffffffffffffffffffffff167fddf252ad1be2c89b69c2b068fc378daa952ba7f163c4a11628f55a4df523b3ef60405160405180910390a45050565b611474826114df565b6114b3576040517f08c379a00000000000000000000000000000000000000000000000000000000081526004016114aa90612929565b60405180910390fd5b806006600084815260200190815260200160002090805190602001906114da929190611efd565b505050565b60008073ffffffffffffffffffffffffffffffffffffffff166002600084815260200190815260200160002060009054906101000a900473ffffffffffffffffffffffffffffffffffffffff1673ffffffffffffffffffffffffffffffffffffffff1614159050919050565b600033905090565b816004600083815260200190815260200160002060006101000a81548173ffffffffffffffffffffffffffffffffffffffff021916908373ffffffffffffffffffffffffffffffffffffffff160217905550808273ffffffffffffffffffffffffffffffffffffffff166115c683610a40565b73ffffffffffffffffffffffffffffffffffffffff167f8c5be1e5ebec7d5bd14f71427d1e84f3dd0314c0f7b2291e5b200ac8c7c3b92560405160405180910390a45050565b6000611617826114df565b611656576040517f08c379a000000000000000000000000000000000000000000000000000000000815260040161164d906128a9565b60405180910390fd5b600061166183610a40565b90508073ffffffffffffffffffffffffffffffffffffffff168473ffffffffffffffffffffffffffffffffffffffff1614806116d057508373ffffffffffffffffffffffffffffffffffffffff166116b884610685565b73ffffffffffffffffffffffffffffffffffffffff16145b806116e157506116e08185611083565b5b91505092915050565b8273ffffffffffffffffffffffffffffffffffffffff1661170a82610a40565b73ffffffffffffffffffffffffffffffffffffffff1614611760576040517f08c379a0000000000000000000000000000000000000000000000000000000008152600401611757906129c9565b60405180910390fd5b600073ffffffffffffffffffffffffffffffffffffffff168273ffffffffffffffffffffffffffffffffffffffff1614156117d0576040517f08c379a00000000000000000000000000000000000000000000000000000000081526004016117c790612869565b60405180910390fd5b6117db838383611ba1565b6117e6600082611553565b6001600360008573ffffffffffffffffffffffffffffffffffffffff1673ffffffffffffffffffffffffffffffffffffffff16815260200190815260200160002060008282546118369190612bb5565b925050819055506001600360008473ffffffffffffffffffffffffffffffffffffffff1673ffffffffffffffffffffffffffffffffffffffff168152602001908152602001600020600082825461188d9190612b2e565b92505081905550816002600083815260200190815260200160002060006101000a81548173ffffffffffffffffffffffffffffffffffffffff021916908373ffffffffffffffffffffffffffffffffffffffff160217905550808273ffffffffffffffffffffffffffffffffffffffff168473ffffffffffffffffffffffffffffffffffffffff167fddf252ad1be2c89b69c2b068fc378daa952ba7f163c4a11628f55a4df523b3ef60405160405180910390a4505050565b6000600760009054906101000a900473ffffffffffffffffffffffffffffffffffffffff16905081600760006101000a81548173ffffffffffffffffffffffffffffffffffffffff021916908373ffffffffffffffffffffffffffffffffffffffff1602179055508173ffffffffffffffffffffffffffffffffffffffff168173ffffffffffffffffffffffffffffffffffffffff167f8be0079c531659141344cd1fd0a4f28419497f9722a3daafe3b4186f6b6457e060405160405180910390a35050565b611a178484846116ea565b611a2384848484611ba6565b611a62576040517f08c379a0000000000000000000000000000000000000000000000000000000008152600401611a59906127e9565b60405180910390fd5b50505050565b606060098054611a7790612c9f565b80601f0160208091040260200160405190810160405280929190818152602001828054611aa390612c9f565b8015611af05780601f10611ac557610100808354040283529160200191611af0565b820191906000526020600020905b815481529060010190602001808311611ad357829003601f168201915b5050505050905090565b6060611b05826114df565b611b44576040517f08c379a0000000000000000000000000000000000000000000000000000000008152600401611b3b906129e9565b60405180910390fd5b6000611b4e611a68565b90506000815111611b6e5760405180602001604052806000815250611b99565b80611b7884611d3d565b604051602001611b89929190612721565b6040516020818303038152906040525b915050919050565b505050565b6000611bc78473ffffffffffffffffffffffffffffffffffffffff16611eea565b15611d30578373ffffffffffffffffffffffffffffffffffffffff1663150b7a02611bf061154b565b8786866040518563ffffffff1660e01b8152600401611c129493929190612760565b602060405180830381600087803b158015611c2c57600080fd5b505af1925050508015611c5d57506040513d601f19601f82011682018060405250810190611c5a91906122e7565b60015b611ce0573d8060008114611c8d576040519150601f19603f3d011682016040523d82523d6000602084013e611c92565b606091505b50600081511415611cd8576040517f08c379a0000000000000000000000000000000000000000000000000000000008152600401611ccf906127e9565b60405180910390fd5b805181602001fd5b63150b7a0260e01b7bffffffffffffffffffffffffffffffffffffffffffffffffffffffff1916817bffffffffffffffffffffffffffffffffffffffffffffffffffffffff191614915050611d35565b600190505b949350505050565b60606000821415611d85576040518060400160405280600181526020017f30000000000000000000000000000000000000000000000000000000000000008152509050611ee5565b600082905060005b60008214611db7578080611da090612d02565b915050600a82611db09190612b84565b9150611d8d565b60008167ffffffffffffffff811115611df9577f4e487b7100000000000000000000000000000000000000000000000000000000600052604160045260246000fd5b6040519080825280601f01601f191660200182016040528015611e2b5781602001600182028036833780820191505090505b5090505b60008514611ede57600182611e449190612bb5565b9150600a85611e539190612d4b565b6030611e5f9190612b2e565b60f81b818381518110611e9b577f4e487b7100000000000000000000000000000000000000000000000000000000600052603260045260246000fd5b60200101907effffffffffffffffffffffffffffffffffffffffffffffffffffffffffffff1916908160001a905350600a85611ed79190612b84565b9450611e2f565b8093505050505b919050565b600080823b905060008111915050919050565b828054611f0990612c9f565b90600052602060002090601f016020900481019282611f2b5760008555611f72565b82601f10611f4457805160ff1916838001178555611f72565b82800160010185558215611f72579182015b82811115611f71578251825591602001919060010190611f56565b5b509050611f7f9190611f83565b5090565b5b80821115611f9c576000816000905550600101611f84565b5090565b6000611fb3611fae84612a89565b612a64565b905082815260208101848484011115611fcb57600080fd5b611fd6848285612c5d565b509392505050565b6000611ff1611fec84612aba565b612a64565b90508281526020810184848401111561200957600080fd5b612014848285612c5d565b509392505050565b60008135905061202b81613368565b92915050565b60008151905061204081613368565b92915050565b6000813590506120558161337f565b92915050565b60008135905061206a81613396565b92915050565b60008151905061207f81613396565b92915050565b600082601f83011261209657600080fd5b81356120a6848260208601611fa0565b91505092915050565b600082601f8301126120c057600080fd5b81356120d0848260208601611fde565b91505092915050565b6000813590506120e8816133ad565b92915050565b60006020828403121561210057600080fd5b600061210e8482850161201c565b91505092915050565b60006020828403121561212957600080fd5b600061213784828501612031565b91505092915050565b6000806040838503121561215357600080fd5b60006121618582860161201c565b92505060206121728582860161201c565b9150509250929050565b60008060006060848603121561219157600080fd5b600061219f8682870161201c565b93505060206121b08682870161201c565b92505060406121c1868287016120d9565b9150509250925092565b600080600080608085870312156121e157600080fd5b60006121ef8782880161201c565b94505060206122008782880161201c565b9350506040612211878288016120d9565b925050606085013567ffffffffffffffff81111561222e57600080fd5b61223a87828801612085565b91505092959194509250565b6000806040838503121561225957600080fd5b60006122678582860161201c565b925050602061227885828601612046565b9150509250929050565b6000806040838503121561229557600080fd5b60006122a38582860161201c565b92505060206122b4858286016120d9565b9150509250929050565b6000602082840312156122d057600080fd5b60006122de8482850161205b565b91505092915050565b6000602082840312156122f957600080fd5b600061230784828501612070565b91505092915050565b60008060006060848603121561232557600080fd5b600084013567ffffffffffffffff81111561233f57600080fd5b61234b868287016120af565b935050602061235c868287016120d9565b925050604084013567ffffffffffffffff81111561237957600080fd5b612385868287016120af565b9150509250925092565b6000602082840312156123a157600080fd5b60006123af848285016120d9565b91505092915050565b6123c181612be9565b82525050565b6123d081612bfb565b82525050565b60006123e182612aeb565b6123eb8185612b01565b93506123fb818560208601612c6c565b61240481612e38565b840191505092915050565b600061241a82612af6565b6124248185612b12565b9350612434818560208601612c6c565b61243d81612e38565b840191505092915050565b600061245382612af6565b61245d8185612b23565b935061246d818560208601612c6c565b80840191505092915050565b6000612486603283612b12565b915061249182612e49565b604082019050919050565b60006124a9602683612b12565b91506124b482612e98565b604082019050919050565b60006124cc601c83612b12565b91506124d782612ee7565b602082019050919050565b60006124ef601683612b12565b91506124fa82612f10565b602082019050919050565b6000612512602483612b12565b915061251d82612f39565b604082019050919050565b6000612535601983612b12565b915061254082612f88565b602082019050919050565b6000612558602c83612b12565b915061256382612fb1565b604082019050919050565b600061257b603883612b12565b915061258682613000565b604082019050919050565b600061259e602a83612b12565b91506125a98261304f565b604082019050919050565b60006125c1602983612b12565b91506125cc8261309e565b604082019050919050565b60006125e4602e83612b12565b91506125ef826130ed565b604082019050919050565b6000612607602083612b12565b91506126128261313c565b602082019050919050565b600061262a603183612b12565b915061263582613165565b604082019050919050565b600061264d602c83612b12565b9150612658826131b4565b604082019050919050565b6000612670602083612b12565b915061267b82613203565b602082019050919050565b6000612693602983612b12565b915061269e8261322c565b604082019050919050565b60006126b6602f83612b12565b91506126c18261327b565b604082019050919050565b60006126d9602183612b12565b91506126e4826132ca565b604082019050919050565b60006126fc603183612b12565b915061270782613319565b604082019050919050565b61271b81612c53565b82525050565b600061272d8285612448565b91506127398284612448565b91508190509392505050565b600060208201905061275a60008301846123b8565b92915050565b600060808201905061277560008301876123b8565b61278260208301866123b8565b61278f6040830185612712565b81810360608301526127a181846123d6565b905095945050505050565b60006020820190506127c160008301846123c7565b92915050565b600060208201905081810360008301526127e1818461240f565b905092915050565b6000602082019050818103600083015261280281612479565b9050919050565b600060208201905081810360008301526128228161249c565b9050919050565b60006020820190508181036000830152612842816124bf565b9050919050565b60006020820190508181036000830152612862816124e2565b9050919050565b6000602082019050818103600083015261288281612505565b9050919050565b600060208201905081810360008301526128a281612528565b9050919050565b600060208201905081810360008301526128c28161254b565b9050919050565b600060208201905081810360008301526128e28161256e565b9050919050565b6000602082019050818103600083015261290281612591565b9050919050565b60006020820190508181036000830152612922816125b4565b9050919050565b60006020820190508181036000830152612942816125d7565b9050919050565b60006020820190508181036000830152612962816125fa565b9050919050565b600060208201905081810360008301526129828161261d565b9050919050565b600060208201905081810360008301526129a281612640565b9050919050565b600060208201905081810360008301526129c281612663565b9050919050565b600060208201905081810360008301526129e281612686565b9050919050565b60006020820190508181036000830152612a02816126a9565b9050919050565b60006020820190508181036000830152612a22816126cc565b9050919050565b60006020820190508181036000830152612a42816126ef565b9050919050565b6000602082019050612a5e6000830184612712565b92915050565b6000612a6e612a7f565b9050612a7a8282612cd1565b919050565b6000604051905090565b600067ffffffffffffffff821115612aa457612aa3612e09565b5b612aad82612e38565b9050602081019050919050565b600067ffffffffffffffff821115612ad557612ad4612e09565b5b612ade82612e38565b9050602081019050919050565b600081519050919050565b600081519050919050565b600082825260208201905092915050565b600082825260208201905092915050565b600081905092915050565b6000612b3982612c53565b9150612b4483612c53565b9250827fffffffffffffffffffffffffffffffffffffffffffffffffffffffffffffffff03821115612b7957612b78612d7c565b5b828201905092915050565b6000612b8f82612c53565b9150612b9a83612c53565b925082612baa57612ba9612dab565b5b828204905092915050565b6000612bc082612c53565b9150612bcb83612c53565b925082821015612bde57612bdd612d7c565b5b828203905092915050565b6000612bf482612c33565b9050919050565b60008115159050919050565b60007fffffffff0000000000000000000000000000000000000000000000000000000082169050919050565b600073ffffffffffffffffffffffffffffffffffffffff82169050919050565b6000819050919050565b82818337600083830152505050565b60005b83811015612c8a578082015181840152602081019050612c6f565b83811115612c99576000848401525b50505050565b60006002820490506001821680612cb757607f821691505b60208210811415612ccb57612cca612dda565b5b50919050565b612cda82612e38565b810181811067ffffffffffffffff82111715612cf957612cf8612e09565b5b80604052505050565b6000612d0d82612c53565b91507fffffffffffffffffffffffffffffffffffffffffffffffffffffffffffffffff821415612d4057612d3f612d7c565b5b600182019050919050565b6000612d5682612c53565b9150612d6183612c53565b925082612d7157612d70612dab565b5b828206905092915050565b7f4e487b7100000000000000000000000000000000000000000000000000000000600052601160045260246000fd5b7f4e487b7100000000000000000000000000000000000000000000000000000000600052601260045260246000fd5b7f4e487b7100000000000000000000000000000000000000000000000000000000600052602260045260246000fd5b7f4e487b7100000000000000000000000000000000000000000000000000000000600052604160045260246000fd5b6000601f19601f8301169050919050565b7f4552433732313a207472616e7366657220746f206e6f6e20455243373231526560008201527f63656976657220696d706c656d656e7465720000000000000000000000000000602082015250565b7f4f776e61626c653a206e6577206f776e657220697320746865207a65726f206160008201527f6464726573730000000000000000000000000000000000000000000000000000602082015250565b7f4552433732313a20746f6b656e20616c7265616479206d696e74656400000000600082015250565b7f50756d6c4e46543a204e6f7420746865206f776e657200000000000000000000600082015250565b7f4552433732313a207472616e7366657220746f20746865207a65726f2061646460008201527f7265737300000000000000000000000000000000000000000000000000000000602082015250565b7f4552433732313a20617070726f766520746f2063616c6c657200000000000000600082015250565b7f4552433732313a206f70657261746f7220717565727920666f72206e6f6e657860008201527f697374656e7420746f6b656e0000000000000000000000000000000000000000602082015250565b7f4552433732313a20617070726f76652063616c6c6572206973206e6f74206f7760008201527f6e6572206e6f7220617070726f76656420666f7220616c6c0000000000000000602082015250565b7f4552433732313a2062616c616e636520717565727920666f7220746865207a6560008201527f726f206164647265737300000000000000000000000000000000000000000000602082015250565b7f4552433732313a206f776e657220717565727920666f72206e6f6e657869737460008201527f656e7420746f6b656e0000000000000000000000000000000000000000000000602082015250565b7f45524337323155524953746f726167653a2055524920736574206f66206e6f6e60008201527f6578697374656e7420746f6b656e000000000000000000000000000000000000602082015250565b7f4552433732313a206d696e7420746f20746865207a65726f2061646472657373600082015250565b7f45524337323155524953746f726167653a2055524920717565727920666f722060008201527f6e6f6e6578697374656e7420746f6b656e000000000000000000000000000000602082015250565b7f4552433732313a20617070726f76656420717565727920666f72206e6f6e657860008201527f697374656e7420746f6b656e0000000000000000000000000000000000000000602082015250565b7f4f776e61626c653a2063616c6c6572206973206e6f7420746865206f776e6572600082015250565b7f4552433732313a207472616e73666572206f6620746f6b656e2074686174206960008201527f73206e6f74206f776e0000000000000000000000000000000000000000000000602082015250565b7f4552433732314d657461646174613a2055524920717565727920666f72206e6f60008201527f6e6578697374656e7420746f6b656e0000000000000000000000000000000000602082015250565b7f4552433732313a20617070726f76616c20746f2063757272656e74206f776e6560008201527f7200000000000000000000000000000000000000000000000000000000000000602082015250565b7f4552433732313a207472616e736665722063616c6c6572206973206e6f74206f60008201527f776e6572206e6f7220617070726f766564000000000000000000000000000000602082015250565b61337181612be9565b811461337c57600080fd5b50565b61338881612bfb565b811461339357600080fd5b50565b61339f81612c07565b81146133aa57600080fd5b50565b6133b681612c53565b81146133c157600080fd5b5056fea26469706673582212205a7f31c84b448d5089f6ba70ad39485eeb7538ae5d2df2532d34f27ccb59d8b164736f6c63430008040033",
  "immutableReferences": {},
  "source": "// SPDX-License-Identifier: MIT\r\npragma solidity 0.8.4;\r\n\r\nimport \"@openzeppelin/contracts/access/Ownable.sol\";\r\nimport \"@openzeppelin/contracts/utils/Counters.sol\";\r\nimport \"@openzeppelin/contracts/token/ERC721/extensions/ERC721URIStorage.sol\";\r\n\r\ncontract PumlNFT is ERC721URIStorage, Ownable {\r\n    using Counters for Counters.Counter;\r\n    Counters.Counter private tokenIds;\r\n    string private baseTokenURI;\r\n\r\n    struct TokenData {\r\n        address payable creator; // creator of the NFT\r\n        uint256 royalties; // royalties to be paid to NFT creator on a resale. In basic points\r\n        string lockedContent; // Content that is locked until the token is sold, and then will be visible to the owner\r\n    }\r\n\r\n    mapping(uint256 => TokenData) tokenMetadata;\r\n\r\n    constructor(string memory _baseTokenURI) ERC721(\"PumlNFT\", \"PNFT\") {\r\n        baseTokenURI = _baseTokenURI;\r\n    }\r\n\r\n    function _baseURI() internal view virtual override returns (string memory) {\r\n        return baseTokenURI;\r\n    }\r\n\r\n    function getCreator(uint256 _tokenId) public view returns (address) {\r\n        return tokenMetadata[_tokenId].creator;\r\n    }\r\n\r\n    function getRoyalties(uint256 _tokenId) public view returns (uint256) {\r\n        return tokenMetadata[_tokenId].royalties;\r\n    }\r\n\r\n    // creator mint his token\r\n    function mint(\r\n        string memory _tokenURI, // token URI without baseURI\r\n        uint256 _royalties, // creator's share get paid from buyer - 100 means 1%\r\n        string memory _lockedContent // the content which only owner can see\r\n    ) public returns (uint256) {\r\n        tokenIds.increment();\r\n\r\n        uint256 newItemId = tokenIds.current();\r\n        _mint(msg.sender, newItemId);\r\n        _setTokenURI(newItemId, _tokenURI);\r\n\r\n        TokenData memory metadata = TokenData({\r\n            creator: payable(msg.sender),\r\n            royalties: _royalties,\r\n            lockedContent: _lockedContent\r\n        });\r\n        tokenMetadata[newItemId] = metadata;\r\n\r\n        return newItemId;\r\n    }\r\n\r\n    // get locked content\r\n    function unlockContent(uint256 _tokenId)\r\n        public\r\n        view\r\n        returns (string memory)\r\n    {\r\n        require(this.ownerOf(_tokenId) == msg.sender, \"PumlNFT: Not the owner\");\r\n        return tokenMetadata[_tokenId].lockedContent;\r\n    }\r\n}\r\n",
  "sourcePath": "E:\\Projects\\blockchain\\ethcontracts\\contracts\\PumlNFT.sol",
  "compiler": {
    "name": "solc",
    "version": "0.8.4+commit.c7e474f2.Emscripten.clang"
  },
  "schemaVersion": "3.4.0",
  "updatedAt": "2021-08-18T12:33:51.851Z",
  "devdoc": {
    "kind": "dev",
    "methods": {
      "approve(address,uint256)": {
        "details": "See {IERC721-approve}."
      },
      "balanceOf(address)": {
        "details": "See {IERC721-balanceOf}."
      },
      "getApproved(uint256)": {
        "details": "See {IERC721-getApproved}."
      },
      "isApprovedForAll(address,address)": {
        "details": "See {IERC721-isApprovedForAll}."
      },
      "name()": {
        "details": "See {IERC721Metadata-name}."
      },
      "owner()": {
        "details": "Returns the address of the current owner."
      },
      "ownerOf(uint256)": {
        "details": "See {IERC721-ownerOf}."
      },
      "renounceOwnership()": {
        "details": "Leaves the contract without owner. It will not be possible to call `onlyOwner` functions anymore. Can only be called by the current owner. NOTE: Renouncing ownership will leave the contract without an owner, thereby removing any functionality that is only available to the owner."
      },
      "safeTransferFrom(address,address,uint256)": {
        "details": "See {IERC721-safeTransferFrom}."
      },
      "safeTransferFrom(address,address,uint256,bytes)": {
        "details": "See {IERC721-safeTransferFrom}."
      },
      "setApprovalForAll(address,bool)": {
        "details": "See {IERC721-setApprovalForAll}."
      },
      "supportsInterface(bytes4)": {
        "details": "See {IERC165-supportsInterface}."
      },
      "symbol()": {
        "details": "See {IERC721Metadata-symbol}."
      },
      "tokenURI(uint256)": {
        "details": "See {IERC721Metadata-tokenURI}."
      },
      "transferFrom(address,address,uint256)": {
        "details": "See {IERC721-transferFrom}."
      },
      "transferOwnership(address)": {
        "details": "Transfers ownership of the contract to a new account (`newOwner`). Can only be called by the current owner."
      }
    },
    "version": 1
  },
  "userdoc": {
    "kind": "user",
    "methods": {},
    "version": 1
  }
}