{
  "contractName": "PumlNFTMarket",
  "abi": [
    {
      "anonymous": false,
      "inputs": [
        {
          "indexed": false,
          "internalType": "uint256",
          "name": "auctionIndex",
          "type": "uint256"
        },
        {
          "indexed": false,
          "internalType": "address",
          "name": "claimer",
          "type": "address"
        }
      ],
      "name": "Claim",
      "type": "event"
    },
    {
      "anonymous": false,
      "inputs": [
        {
          "indexed": true,
          "internalType": "address",
          "name": "previousOwner",
          "type": "address"
        },
        {
          "indexed": true,
          "internalType": "address",
          "name": "newOwner",
          "type": "address"
        }
      ],
      "name": "OwnershipTransferred",
      "type": "event"
    },
    {
      "anonymous": false,
      "inputs": [
        {
          "indexed": false,
          "internalType": "address",
          "name": "receiver",
          "type": "address"
        },
        {
          "indexed": false,
          "internalType": "uint256",
          "name": "amount",
          "type": "uint256"
        },
        {
          "indexed": false,
          "internalType": "uint256",
          "name": "commission",
          "type": "uint256"
        },
        {
          "indexed": false,
          "internalType": "uint256",
          "name": "royalties",
          "type": "uint256"
        }
      ],
      "name": "PaymentToOwner",
      "type": "event"
    },
    {
      "anonymous": false,
      "inputs": [
        {
          "indexed": false,
          "internalType": "address",
          "name": "receiver",
          "type": "address"
        },
        {
          "indexed": false,
          "internalType": "uint256",
          "name": "amount",
          "type": "uint256"
        }
      ],
      "name": "Royalties",
      "type": "event"
    },
    {
      "inputs": [],
      "name": "accumulatedCommission",
      "outputs": [
        {
          "internalType": "uint256",
          "name": "",
          "type": "uint256"
        }
      ],
      "stateMutability": "view",
      "type": "function"
    },
    {
      "inputs": [],
      "name": "commission",
      "outputs": [
        {
          "internalType": "uint256",
          "name": "",
          "type": "uint256"
        }
      ],
      "stateMutability": "view",
      "type": "function"
    },
    {
      "inputs": [
        {
          "internalType": "uint256",
          "name": "",
          "type": "uint256"
        }
      ],
      "name": "offers",
      "outputs": [
        {
          "internalType": "address",
          "name": "assetAddress",
          "type": "address"
        },
        {
          "internalType": "uint256",
          "name": "tokenId",
          "type": "uint256"
        },
        {
          "internalType": "address payable",
          "name": "creator",
          "type": "address"
        },
        {
          "internalType": "uint256",
          "name": "price",
          "type": "uint256"
        },
        {
          "internalType": "bool",
          "name": "status",
          "type": "bool"
        }
      ],
      "stateMutability": "view",
      "type": "function"
    },
    {
      "inputs": [],
      "name": "owner",
      "outputs": [
        {
          "internalType": "address",
          "name": "",
          "type": "address"
        }
      ],
      "stateMutability": "view",
      "type": "function"
    },
    {
      "inputs": [],
      "name": "renounceOwnership",
      "outputs": [],
      "stateMutability": "nonpayable",
      "type": "function"
    },
    {
      "inputs": [],
      "name": "totalSales",
      "outputs": [
        {
          "internalType": "uint256",
          "name": "",
          "type": "uint256"
        }
      ],
      "stateMutability": "view",
      "type": "function"
    },
    {
      "inputs": [
        {
          "internalType": "address",
          "name": "newOwner",
          "type": "address"
        }
      ],
      "name": "transferOwnership",
      "outputs": [],
      "stateMutability": "nonpayable",
      "type": "function"
    },
    {
      "inputs": [
        {
          "internalType": "address",
          "name": "_assetAddress",
          "type": "address"
        },
        {
          "internalType": "uint256",
          "name": "_tokenId",
          "type": "uint256"
        },
        {
          "internalType": "uint256",
          "name": "_price",
          "type": "uint256"
        }
      ],
      "name": "createOffer",
      "outputs": [],
      "stateMutability": "nonpayable",
      "type": "function"
    },
    {
      "inputs": [
        {
          "internalType": "uint256",
          "name": "_tokenId",
          "type": "uint256"
        }
      ],
      "name": "removeFromSale",
      "outputs": [],
      "stateMutability": "nonpayable",
      "type": "function"
    },
    {
      "inputs": [
        {
          "internalType": "uint256",
          "name": "_commission",
          "type": "uint256"
        }
      ],
      "name": "setCommission",
      "outputs": [],
      "stateMutability": "nonpayable",
      "type": "function"
    },
    {
      "inputs": [
        {
          "internalType": "uint256",
          "name": "_tokenId",
          "type": "uint256"
        }
      ],
      "name": "buy",
      "outputs": [
        {
          "internalType": "bool",
          "name": "",
          "type": "bool"
        }
      ],
      "stateMutability": "payable",
      "type": "function"
    }
  ],
  "bytecode": "0x608060405260006002556000600355600060045534801561001f57600080fd5b5061003c61003161004860201b60201c565b61005060201b60201c565b60018081905550610114565b600033905090565b60008060009054906101000a900473ffffffffffffffffffffffffffffffffffffffff169050816000806101000a81548173ffffffffffffffffffffffffffffffffffffffff021916908373ffffffffffffffffffffffffffffffffffffffff1602179055508173ffffffffffffffffffffffffffffffffffffffff168173ffffffffffffffffffffffffffffffffffffffff167f8be0079c531659141344cd1fd0a4f28419497f9722a3daafe3b4186f6b6457e060405160405180910390a35050565b611fd9806101236000396000f3fe60806040526004361061009c5760003560e01c80638a72ea6a116100645780638a72ea6a1461015e5780638da5cb5b1461019f578063ae693673146101ca578063d96a094a146101f5578063e148919114610225578063f2fde38b146102505761009c565b80631361a3b6146100a15780631c6c7128146100ca578063355e6b43146100f35780636605ff661461011c578063715018a614610147575b600080fd5b3480156100ad57600080fd5b506100c860048036038101906100c3919061155e565b610279565b005b3480156100d657600080fd5b506100f160048036038101906100ec919061150f565b6104d6565b005b3480156100ff57600080fd5b5061011a6004803603810190610115919061155e565b61094a565b005b34801561012857600080fd5b50610131610a15565b60405161013e9190611a42565b60405180910390f35b34801561015357600080fd5b5061015c610a1b565b005b34801561016a57600080fd5b506101856004803603810190610180919061155e565b610aa3565b604051610196959493929190611874565b60405180910390f35b3480156101ab57600080fd5b506101b4610b26565b6040516101c191906117b4565b60405180910390f35b3480156101d657600080fd5b506101df610b4f565b6040516101ec9190611a42565b60405180910390f35b61020f600480360381019061020a919061155e565b610b55565b60405161021c91906118c7565b60405180910390f35b34801561023157600080fd5b5061023a61129f565b6040516102479190611a42565b60405180910390f35b34801561025c57600080fd5b50610277600480360381019061027291906114bd565b6112a5565b005b6000600560008381526020019081526020016000206040518060a00160405290816000820160009054906101000a900473ffffffffffffffffffffffffffffffffffffffff1673ffffffffffffffffffffffffffffffffffffffff1673ffffffffffffffffffffffffffffffffffffffff168152602001600182015481526020016002820160009054906101000a900473ffffffffffffffffffffffffffffffffffffffff1673ffffffffffffffffffffffffffffffffffffffff1673ffffffffffffffffffffffffffffffffffffffff168152602001600382015481526020016004820160009054906101000a900460ff1615151515815250509050806040015173ffffffffffffffffffffffffffffffffffffffff163373ffffffffffffffffffffffffffffffffffffffff16146103e8576040517f08c379a00000000000000000000000000000000000000000000000000000000081526004016103df90611942565b60405180910390fd5b6000816080019015159081151581525050806005600084815260200190815260200160002060008201518160000160006101000a81548173ffffffffffffffffffffffffffffffffffffffff021916908373ffffffffffffffffffffffffffffffffffffffff1602179055506020820151816001015560408201518160020160006101000a81548173ffffffffffffffffffffffffffffffffffffffff021916908373ffffffffffffffffffffffffffffffffffffffff1602179055506060820151816003015560808201518160040160006101000a81548160ff0219169083151502179055509050505050565b60008390503373ffffffffffffffffffffffffffffffffffffffff168173ffffffffffffffffffffffffffffffffffffffff16636352211e856040518263ffffffff1660e01b815260040161052b9190611a42565b60206040518083038186803b15801561054357600080fd5b505afa158015610557573d6000803e3d6000fd5b505050506040513d601f19601f8201168201806040525081019061057b91906114e6565b73ffffffffffffffffffffffffffffffffffffffff16146105d1576040517f08c379a00000000000000000000000000000000000000000000000000000000081526004016105c890611942565b60405180910390fd5b3073ffffffffffffffffffffffffffffffffffffffff168173ffffffffffffffffffffffffffffffffffffffff1663081812fc856040518263ffffffff1660e01b81526004016106219190611a42565b60206040518083038186803b15801561063957600080fd5b505afa15801561064d573d6000803e3d6000fd5b505050506040513d601f19601f8201168201806040525081019061067191906114e6565b73ffffffffffffffffffffffffffffffffffffffff16146106c7576040517f08c379a00000000000000000000000000000000000000000000000000000000081526004016106be906118e2565b60405180910390fd5b6000600560008581526020019081526020016000206040518060a00160405290816000820160009054906101000a900473ffffffffffffffffffffffffffffffffffffffff1673ffffffffffffffffffffffffffffffffffffffff1673ffffffffffffffffffffffffffffffffffffffff168152602001600182015481526020016002820160009054906101000a900473ffffffffffffffffffffffffffffffffffffffff1673ffffffffffffffffffffffffffffffffffffffff1673ffffffffffffffffffffffffffffffffffffffff168152602001600382015481526020016004820160009054906101000a900460ff161515151581525050905060001515816080015115151461080f576040517f08c379a0000000000000000000000000000000000000000000000000000000008152600401610806906119e2565b60405180910390fd5b60006040518060a001604052808773ffffffffffffffffffffffffffffffffffffffff1681526020018681526020013373ffffffffffffffffffffffffffffffffffffffff168152602001858152602001600115158152509050806005600087815260200190815260200160002060008201518160000160006101000a81548173ffffffffffffffffffffffffffffffffffffffff021916908373ffffffffffffffffffffffffffffffffffffffff1602179055506020820151816001015560408201518160020160006101000a81548173ffffffffffffffffffffffffffffffffffffffff021916908373ffffffffffffffffffffffffffffffffffffffff1602179055506060820151816003015560808201518160040160006101000a81548160ff021916908315150217905550905050505050505050565b61095261139d565b73ffffffffffffffffffffffffffffffffffffffff16610970610b26565b73ffffffffffffffffffffffffffffffffffffffff16146109c6576040517f08c379a00000000000000000000000000000000000000000000000000000000081526004016109bd906119a2565b60405180910390fd5b611388811115610a0b576040517f08c379a0000000000000000000000000000000000000000000000000000000008152600401610a0290611982565b60405180910390fd5b8060028190555050565b60045481565b610a2361139d565b73ffffffffffffffffffffffffffffffffffffffff16610a41610b26565b73ffffffffffffffffffffffffffffffffffffffff1614610a97576040517f08c379a0000000000000000000000000000000000000000000000000000000008152600401610a8e906119a2565b60405180910390fd5b610aa160006113a5565b565b60056020528060005260406000206000915090508060000160009054906101000a900473ffffffffffffffffffffffffffffffffffffffff16908060010154908060020160009054906101000a900473ffffffffffffffffffffffffffffffffffffffff16908060030154908060040160009054906101000a900460ff16905085565b60008060009054906101000a900473ffffffffffffffffffffffffffffffffffffffff16905090565b60035481565b600060026001541415610b9d576040517f08c379a0000000000000000000000000000000000000000000000000000000008152600401610b9490611a22565b60405180910390fd5b6002600181905550600033905060003490506000600560008681526020019081526020016000206040518060a00160405290816000820160009054906101000a900473ffffffffffffffffffffffffffffffffffffffff1673ffffffffffffffffffffffffffffffffffffffff1673ffffffffffffffffffffffffffffffffffffffff168152602001600182015481526020016002820160009054906101000a900473ffffffffffffffffffffffffffffffffffffffff1673ffffffffffffffffffffffffffffffffffffffff1673ffffffffffffffffffffffffffffffffffffffff168152602001600382015481526020016004820160009054906101000a900460ff1615151515815250509050600115158160800151151514610cf7576040517f08c379a0000000000000000000000000000000000000000000000000000000008152600401610cee906119c2565b60405180910390fd5b60008160600151905080831015610d43576040517f08c379a0000000000000000000000000000000000000000000000000000000008152600401610d3a90611962565b60405180910390fd5b7f35538759d80c1fd7bb450a0d05601db5a99fa8b5d073a07c847a9fd61029b1078685604051610d74929190611a5d565b60405180910390a16000826000015190508073ffffffffffffffffffffffffffffffffffffffff166342842e0e8460400151878a6040518463ffffffff1660e01b8152600401610dc6939291906117cf565b600060405180830381600087803b158015610de057600080fd5b505af1158015610df4573d6000803e3d6000fd5b5050505060008173ffffffffffffffffffffffffffffffffffffffff1663d48e638a896040518263ffffffff1660e01b8152600401610e339190611a42565b60206040518083038186803b158015610e4b57600080fd5b505afa158015610e5f573d6000803e3d6000fd5b505050506040513d601f19601f82011682018060405250810190610e8391906114e6565b9050600061271060025487610e989190611b29565b610ea29190611af8565b90506000856040015173ffffffffffffffffffffffffffffffffffffffff168373ffffffffffffffffffffffffffffffffffffffff1614611067576127108473ffffffffffffffffffffffffffffffffffffffff1663bb3bafd68c6040518263ffffffff1660e01b8152600401610f199190611a42565b60206040518083038186803b158015610f3157600080fd5b505afa158015610f45573d6000803e3d6000fd5b505050506040513d601f19601f82011682018060405250810190610f699190611587565b88610f749190611b29565b610f7e9190611af8565b905060008373ffffffffffffffffffffffffffffffffffffffff1682604051610fa69061179f565b60006040518083038185875af1925050503d8060008114610fe3576040519150601f19603f3d011682016040523d82523d6000602084013e610fe8565b606091505b505090508061102c576040517f08c379a000000000000000000000000000000000000000000000000000000000815260040161102390611a02565b60405180910390fd5b7f54b960faf8b038c33ba9912fdb9ac1e8e0096c5f327d1c89e62b5d9c5357ddb6848360405161105d929190611806565b60405180910390a1505b60008183896110769190611b83565b6110809190611b83565b90506000876040015173ffffffffffffffffffffffffffffffffffffffff16826040516110ac9061179f565b60006040518083038185875af1925050503d80600081146110e9576040519150601f19603f3d011682016040523d82523d6000602084013e6110ee565b606091505b5050905080611132576040517f08c379a000000000000000000000000000000000000000000000000000000000815260040161112990611902565b60405180910390fd5b7f5cb0393b3d3a3a9ce968785af51653787213d4c8c79af40a40c75568d848596b886040015183868660405161116b949392919061182f565b60405180910390a1836003546111819190611aa2565b600381905550600088608001901515908115158152505087600560008e815260200190815260200160002060008201518160000160006101000a81548173ffffffffffffffffffffffffffffffffffffffff021916908373ffffffffffffffffffffffffffffffffffffffff1602179055506020820151816001015560408201518160020160006101000a81548173ffffffffffffffffffffffffffffffffffffffff021916908373ffffffffffffffffffffffffffffffffffffffff1602179055506060820151816003015560808201518160040160006101000a81548160ff0219169083151502179055509050503460045461127f9190611aa2565b60048190555060019a505050505050505050505060018081905550919050565b60025481565b6112ad61139d565b73ffffffffffffffffffffffffffffffffffffffff166112cb610b26565b73ffffffffffffffffffffffffffffffffffffffff1614611321576040517f08c379a0000000000000000000000000000000000000000000000000000000008152600401611318906119a2565b60405180910390fd5b600073ffffffffffffffffffffffffffffffffffffffff168173ffffffffffffffffffffffffffffffffffffffff161415611391576040517f08c379a000000000000000000000000000000000000000000000000000000000815260040161138890611922565b60405180910390fd5b61139a816113a5565b50565b600033905090565b60008060009054906101000a900473ffffffffffffffffffffffffffffffffffffffff169050816000806101000a81548173ffffffffffffffffffffffffffffffffffffffff021916908373ffffffffffffffffffffffffffffffffffffffff1602179055508173ffffffffffffffffffffffffffffffffffffffff168173ffffffffffffffffffffffffffffffffffffffff167f8be0079c531659141344cd1fd0a4f28419497f9722a3daafe3b4186f6b6457e060405160405180910390a35050565b60008135905061147881611f75565b92915050565b60008151905061148d81611f75565b92915050565b6000813590506114a281611f8c565b92915050565b6000815190506114b781611f8c565b92915050565b6000602082840312156114cf57600080fd5b60006114dd84828501611469565b91505092915050565b6000602082840312156114f857600080fd5b60006115068482850161147e565b91505092915050565b60008060006060848603121561152457600080fd5b600061153286828701611469565b935050602061154386828701611493565b925050604061155486828701611493565b9150509250925092565b60006020828403121561157057600080fd5b600061157e84828501611493565b91505092915050565b60006020828403121561159957600080fd5b60006115a7848285016114a8565b91505092915050565b6115b981611c11565b82525050565b6115c881611bc9565b82525050565b6115d781611bb7565b82525050565b6115e681611bdb565b82525050565b60006115f9601f83611a91565b915061160482611ca5565b602082019050919050565b600061161c602783611a91565b915061162782611cce565b604082019050919050565b600061163f602683611a91565b915061164a82611d1d565b604082019050919050565b6000611662602483611a91565b915061166d82611d6c565b604082019050919050565b6000611685602283611a91565b915061169082611dbb565b604082019050919050565b60006116a8602283611a91565b91506116b382611e0a565b604082019050919050565b60006116cb602083611a91565b91506116d682611e59565b602082019050919050565b60006116ee601e83611a91565b91506116f982611e82565b602082019050919050565b6000611711600083611a86565b915061171c82611eab565b600082019050919050565b6000611734602d83611a91565b915061173f82611eae565b604082019050919050565b6000611757602983611a91565b915061176282611efd565b604082019050919050565b600061177a601f83611a91565b915061178582611f4c565b602082019050919050565b61179981611c07565b82525050565b60006117aa82611704565b9150819050919050565b60006020820190506117c960008301846115ce565b92915050565b60006060820190506117e460008301866115b0565b6117f160208301856115ce565b6117fe6040830184611790565b949350505050565b600060408201905061181b60008301856115b0565b6118286020830184611790565b9392505050565b600060808201905061184460008301876115b0565b6118516020830186611790565b61185e6040830185611790565b61186b6060830184611790565b95945050505050565b600060a08201905061188960008301886115ce565b6118966020830187611790565b6118a360408301866115bf565b6118b06060830185611790565b6118bd60808301846115dd565b9695505050505050565b60006020820190506118dc60008301846115dd565b92915050565b600060208201905081810360008301526118fb816115ec565b9050919050565b6000602082019050818103600083015261191b8161160f565b9050919050565b6000602082019050818103600083015261193b81611632565b9050919050565b6000602082019050818103600083015261195b81611655565b9050919050565b6000602082019050818103600083015261197b81611678565b9050919050565b6000602082019050818103600083015261199b8161169b565b9050919050565b600060208201905081810360008301526119bb816116be565b9050919050565b600060208201905081810360008301526119db816116e1565b9050919050565b600060208201905081810360008301526119fb81611727565b9050919050565b60006020820190508181036000830152611a1b8161174a565b9050919050565b60006020820190508181036000830152611a3b8161176d565b9050919050565b6000602082019050611a576000830184611790565b92915050565b6000604082019050611a726000830185611790565b611a7f60208301846115ce565b9392505050565b600081905092915050565b600082825260208201905092915050565b6000611aad82611c07565b9150611ab883611c07565b9250827fffffffffffffffffffffffffffffffffffffffffffffffffffffffffffffffff03821115611aed57611aec611c47565b5b828201905092915050565b6000611b0382611c07565b9150611b0e83611c07565b925082611b1e57611b1d611c76565b5b828204905092915050565b6000611b3482611c07565b9150611b3f83611c07565b9250817fffffffffffffffffffffffffffffffffffffffffffffffffffffffffffffffff0483118215151615611b7857611b77611c47565b5b828202905092915050565b6000611b8e82611c07565b9150611b9983611c07565b925082821015611bac57611bab611c47565b5b828203905092915050565b6000611bc282611be7565b9050919050565b6000611bd482611be7565b9050919050565b60008115159050919050565b600073ffffffffffffffffffffffffffffffffffffffff82169050919050565b6000819050919050565b6000611c1c82611c23565b9050919050565b6000611c2e82611c35565b9050919050565b6000611c4082611be7565b9050919050565b7f4e487b7100000000000000000000000000000000000000000000000000000000600052601160045260246000fd5b7f4e487b7100000000000000000000000000000000000000000000000000000000600052601260045260246000fd5b7f50756d6c4e46544d61726b65743a204e4654206e6f7420617070726f76656400600082015250565b7f50756d6c4e46544d61726b65743a205472616e73666572207061796d656e742060008201527f6661696c65642e00000000000000000000000000000000000000000000000000602082015250565b7f4f776e61626c653a206e6577206f776e657220697320746865207a65726f206160008201527f6464726573730000000000000000000000000000000000000000000000000000602082015250565b7f50756d6c4e46544d61726b65743a20596f7520617265206e6f7420746865206f60008201527f776e657200000000000000000000000000000000000000000000000000000000602082015250565b7f50756d6c4e46544d61726b65743a205072696365206973206e6f7420656e6f7560008201527f6768000000000000000000000000000000000000000000000000000000000000602082015250565b7f50756d6c4e46544d61726b65743a20436f6d6d697373696f6e20746f6f20686960008201527f6768000000000000000000000000000000000000000000000000000000000000602082015250565b7f4f776e61626c653a2063616c6c6572206973206e6f7420746865206f776e6572600082015250565b7f50756d6c4e46544d61726b65743a204e4654206e6f74206f6e2073616c650000600082015250565b50565b7f50756d6c4e46544d61726b65743a20416e20616374697665206f66666572206160008201527f6c72656164792065786973747300000000000000000000000000000000000000602082015250565b7f50756d6c4e46544d61726b65743a205472616e7366657220726f61796c74696560008201527f73206661696c65642e0000000000000000000000000000000000000000000000602082015250565b7f5265656e7472616e637947756172643a207265656e7472616e742063616c6c00600082015250565b611f7e81611bb7565b8114611f8957600080fd5b50565b611f9581611c07565b8114611fa057600080fd5b5056fea2646970667358221220ee49596bf05ac5ab247b0c0e69352d4c932629377a644de25a8481e7ec49ace364736f6c63430008040033",
  "immutableReferences": {},
  "source": "// SPDX-License-Identifier: MIT\r\npragma solidity 0.8.4;\r\n\r\nimport \"@openzeppelin/contracts/token/ERC721/IERC721.sol\";\r\nimport \"@openzeppelin/contracts/access/Ownable.sol\";\r\nimport \"@openzeppelin/contracts/security/ReentrancyGuard.sol\";\r\n\r\nimport \"./PumlNFT.sol\";\r\n\r\ncontract PumlNFTMarket is Ownable, ReentrancyGuard {\r\n    uint256 public commission = 0; // this is the commission in basic points that will charge the marketplace by default.\r\n    uint256 public accumulatedCommission = 0; // this is the amount in ETH accumulated on marketplace wallet\r\n    uint256 public totalSales = 0;\r\n\r\n    struct Offer {\r\n        address assetAddress; // address of the token\r\n        uint256 tokenId; // the tokenId returned when calling \"createItem\"\r\n        address payable creator; // who creates the offer\r\n        uint256 price; // price of each token\r\n        bool status; // true: active, false: inactive\r\n    }\r\n\r\n    mapping(uint256 => Offer) public offers;\r\n\r\n    // seller call this to make his offer for token sale\r\n    function createOffer(\r\n        address _assetAddress, // PumlNFT's address\r\n        uint256 _tokenId, // token's id\r\n        uint256 _price // sale price in ether\r\n    ) public {\r\n        IERC721 asset = IERC721(_assetAddress);\r\n        require(\r\n            asset.ownerOf(_tokenId) == msg.sender,\r\n            \"PumlNFTMarket: You are not the owner\"\r\n        );\r\n        require(\r\n            asset.getApproved(_tokenId) == address(this),\r\n            \"PumlNFTMarket: NFT not approved\"\r\n        );\r\n\r\n        // Could not be used to update an existing offer (#02)\r\n        Offer memory previous = offers[_tokenId];\r\n        require(\r\n            previous.status == false,\r\n            \"PumlNFTMarket: An active offer already exists\"\r\n        );\r\n\r\n        // First create the offer\r\n        Offer memory offer = Offer({\r\n            assetAddress: _assetAddress,\r\n            tokenId: _tokenId,\r\n            creator: payable(msg.sender),\r\n            price: _price,\r\n            status: true\r\n        });\r\n\r\n        offers[_tokenId] = offer;\r\n    }\r\n\r\n    // remove offer for sale\r\n    function removeFromSale(uint256 _tokenId) public {\r\n        Offer memory offer = offers[_tokenId];\r\n        require(\r\n            msg.sender == offer.creator,\r\n            \"PumlNFTMarket: You are not the owner\"\r\n        );\r\n        offer.status = false;\r\n        offers[_tokenId] = offer;\r\n    }\r\n\r\n    // set the commission for market - 100 means 1%, maximum is set by 50%\r\n    function setCommission(uint256 _commission) public onlyOwner {\r\n        require(_commission <= 5000, \"PumlNFTMarket: Commission too high\");\r\n        commission = _commission;\r\n    }\r\n\r\n    // Event triggered when buyer claims the NFT\r\n    event Claim(uint256 auctionIndex, address claimer);\r\n\r\n    // Event triggered when a royalties payment is generated on sale\r\n    event Royalties(address receiver, uint256 amount);\r\n\r\n    // Event triggered when a payment to the owner is generated on sale\r\n    event PaymentToOwner(\r\n        address receiver,\r\n        uint256 amount,\r\n        uint256 commission,\r\n        uint256 royalties\r\n    );\r\n\r\n    // buy NFT token\r\n    function buy(uint256 _tokenId) public payable nonReentrant returns (bool) {\r\n        address buyer = msg.sender;\r\n        uint256 paidPrice = msg.value;\r\n\r\n        Offer memory offer = offers[_tokenId];\r\n        require(offer.status == true, \"PumlNFTMarket: NFT not on sale\");\r\n\r\n        uint256 price = offer.price;\r\n        require(paidPrice >= price, \"PumlNFTMarket: Price is not enough\");\r\n\r\n        emit Claim(_tokenId, buyer);\r\n\r\n        PumlNFT asset = PumlNFT(offer.assetAddress);\r\n        asset.safeTransferFrom(offer.creator, buyer, _tokenId);\r\n\r\n        // now, pay the amount - commission - royalties to creator\r\n        address payable creatorNFT = payable(asset.getCreator(_tokenId));\r\n\r\n        uint256 commissionToPay = (paidPrice * commission) / 10000;\r\n        uint256 royaltiesToPay = 0;\r\n        if (creatorNFT != offer.creator) {\r\n            // It is a resale. Transfer royalties\r\n            royaltiesToPay = (paidPrice * asset.getRoyalties(_tokenId)) / 10000;\r\n\r\n            (bool success, ) = creatorNFT.call{value: royaltiesToPay}(\"\");\r\n            require(success, \"PumlNFTMarket: Transfer roaylties failed.\");\r\n\r\n            emit Royalties(creatorNFT, royaltiesToPay);\r\n        }\r\n        uint256 amountToPay = paidPrice - commissionToPay - royaltiesToPay;\r\n\r\n        (bool success2, ) = offer.creator.call{value: amountToPay}(\"\");\r\n        require(success2, \"PumlNFTMarket: Transfer payment failed.\");\r\n\r\n        emit PaymentToOwner(\r\n            offer.creator,\r\n            amountToPay,\r\n            commissionToPay,\r\n            royaltiesToPay\r\n        );\r\n\r\n        accumulatedCommission = accumulatedCommission + commissionToPay;\r\n\r\n        offer.status = false;\r\n        offers[_tokenId] = offer;\r\n\r\n        totalSales = totalSales + msg.value;\r\n\r\n        return true;\r\n    }\r\n}\r\n",
  "sourcePath": "E:/Projects/blockchain/ethcontracts/contracts/PumlNFTMarket.sol",
  "compiler": {
    "name": "solc",
    "version": "0.8.4+commit.c7e474f2.Emscripten.clang"
  },
  "schemaVersion": "3.4.0",
  "updatedAt": "2021-08-18T12:33:51.869Z",
  "devdoc": {
    "kind": "dev",
    "methods": {
      "owner()": {
        "details": "Returns the address of the current owner."
      },
      "renounceOwnership()": {
        "details": "Leaves the contract without owner. It will not be possible to call `onlyOwner` functions anymore. Can only be called by the current owner. NOTE: Renouncing ownership will leave the contract without an owner, thereby removing any functionality that is only available to the owner."
      },
      "transferOwnership(address)": {
        "details": "Transfers ownership of the contract to a new account (`newOwner`). Can only be called by the current owner."
      }
    },
    "version": 1
  },
  "userdoc": {
    "kind": "user",
    "methods": {},
    "version": 1
  }
}